{
  "_format": "hh-sol-artifact-1",
  "contractName": "TaskGridEscrow",
  "sourceName": "contracts/Escrow.sol",
  "abi": [
    {
      "anonymous": false,
      "inputs": [
        {
          "indexed": true,
          "internalType": "bytes32",
          "name": "jobId",
          "type": "bytes32"
        }
      ],
      "name": "DisputeOpened",
      "type": "event"
    },
    {
      "anonymous": false,
      "inputs": [
        {
          "indexed": true,
          "internalType": "bytes32",
          "name": "jobId",
          "type": "bytes32"
        },
        {
          "indexed": false,
          "internalType": "address",
          "name": "winner",
          "type": "address"
        }
      ],
      "name": "DisputeResolved",
      "type": "event"
    },
    {
      "anonymous": false,
      "inputs": [
        {
          "indexed": true,
          "internalType": "bytes32",
          "name": "jobId",
          "type": "bytes32"
        },
        {
          "indexed": true,
          "internalType": "address",
          "name": "client",
          "type": "address"
        },
        {
          "indexed": false,
          "internalType": "uint256",
          "name": "amountWei",
          "type": "uint256"
        }
      ],
      "name": "EscrowCreated",
      "type": "event"
    },
    {
      "anonymous": false,
      "inputs": [
        {
          "indexed": true,
          "internalType": "bytes32",
          "name": "jobId",
          "type": "bytes32"
        },
        {
          "indexed": true,
          "internalType": "address",
          "name": "freelancer",
          "type": "address"
        }
      ],
      "name": "JobStarted",
      "type": "event"
    },
    {
      "anonymous": false,
      "inputs": [
        {
          "indexed": true,
          "internalType": "bytes32",
          "name": "jobId",
          "type": "bytes32"
        },
        {
          "indexed": true,
          "internalType": "address",
          "name": "freelancer",
          "type": "address"
        },
        {
          "indexed": false,
          "internalType": "uint256",
          "name": "amountWei",
          "type": "uint256"
        }
      ],
      "name": "PaymentReleased",
      "type": "event"
    },
    {
      "anonymous": false,
      "inputs": [
        {
          "indexed": true,
          "internalType": "bytes32",
          "name": "jobId",
          "type": "bytes32"
        },
        {
          "indexed": false,
          "internalType": "address",
          "name": "client",
          "type": "address"
        },
        {
          "indexed": false,
          "internalType": "uint256",
          "name": "amountWei",
          "type": "uint256"
        }
      ],
      "name": "Refunded",
      "type": "event"
    },
    {
      "anonymous": false,
      "inputs": [
        {
          "indexed": true,
          "internalType": "bytes32",
          "name": "jobId",
          "type": "bytes32"
        }
      ],
      "name": "WorkSubmitted",
      "type": "event"
    },
    {
      "inputs": [
        {
          "internalType": "bytes32",
          "name": "jobId",
          "type": "bytes32"
        }
      ],
      "name": "approveAndRelease",
      "outputs": [],
      "stateMutability": "nonpayable",
      "type": "function"
    },
    {
      "inputs": [
        {
          "internalType": "bytes32",
          "name": "jobId",
          "type": "bytes32"
        }
      ],
      "name": "createEscrow",
      "outputs": [],
      "stateMutability": "payable",
      "type": "function"
    },
    {
      "inputs": [
        {
          "internalType": "bytes32",
          "name": "",
          "type": "bytes32"
        }
      ],
      "name": "jobs",
      "outputs": [
        {
          "internalType": "address",
          "name": "client",
          "type": "address"
        },
        {
          "internalType": "address",
          "name": "freelancer",
          "type": "address"
        },
        {
          "internalType": "uint256",
          "name": "amountWei",
          "type": "uint256"
        },
        {
          "internalType": "enum TaskGridEscrow.JobStatus",
          "name": "status",
          "type": "uint8"
        }
      ],
      "stateMutability": "view",
      "type": "function"
    },
    {
      "inputs": [
        {
          "internalType": "bytes32",
          "name": "jobId",
          "type": "bytes32"
        }
      ],
      "name": "openDispute",
      "outputs": [],
      "stateMutability": "nonpayable",
      "type": "function"
    },
    {
      "inputs": [
        {
          "internalType": "bytes32",
          "name": "jobId",
          "type": "bytes32"
        },
        {
          "internalType": "bool",
          "name": "freelancerWins",
          "type": "bool"
        }
      ],
      "name": "resolveDispute",
      "outputs": [],
      "stateMutability": "nonpayable",
      "type": "function"
    },
    {
      "inputs": [
        {
          "internalType": "bytes32",
          "name": "jobId",
          "type": "bytes32"
        },
        {
          "internalType": "address",
          "name": "freelancer",
          "type": "address"
        }
      ],
      "name": "startJob",
      "outputs": [],
      "stateMutability": "nonpayable",
      "type": "function"
    },
    {
      "inputs": [
        {
          "internalType": "bytes32",
          "name": "jobId",
          "type": "bytes32"
        }
      ],
      "name": "submitWork",
      "outputs": [],
      "stateMutability": "nonpayable",
      "type": "function"
    }
  ],
  "bytecode": "0x608060405234801561001057600080fd5b50611807806100206000396000f3fe6080604052600436106100705760003560e01c80635792edd41161004e5780635792edd41461010757806379a3cd4114610130578063ebce9b591461014c578063f08ef6cb1461017557610070565b806338ed7cfc146100755780633a9cfef2146100b557806343a0e3e6146100de575b600080fd5b34801561008157600080fd5b5061009c60048036038101906100979190611200565b61019e565b6040516100ac94939291906112fe565b60405180910390f35b3480156100c157600080fd5b506100dc60048036038101906100d79190611200565b61021b565b005b3480156100ea57600080fd5b506101056004803603810190610100919061137b565b610417565b005b34801561011357600080fd5b5061012e600480360381019061012991906113e7565b6107f7565b005b61014a60048036038101906101459190611200565b6109e3565b005b34801561015857600080fd5b50610173600480360381019061016e9190611200565b610c5a565b005b34801561018157600080fd5b5061019c60048036038101906101979190611200565b610f89565b005b60006020528060005260406000206000915090508060000160009054906101000a900473ffffffffffffffffffffffffffffffffffffffff16908060010160009054906101000a900473ffffffffffffffffffffffffffffffffffffffff16908060020154908060030160009054906101000a900460ff16905084565b8060008082815260200190815260200160002060000160009054906101000a900473ffffffffffffffffffffffffffffffffffffffff1673ffffffffffffffffffffffffffffffffffffffff163373ffffffffffffffffffffffffffffffffffffffff1614806102eb575060008082815260200190815260200160002060010160009054906101000a900473ffffffffffffffffffffffffffffffffffffffff1673ffffffffffffffffffffffffffffffffffffffff163373ffffffffffffffffffffffffffffffffffffffff16145b61032a576040517f08c379a000000000000000000000000000000000000000000000000000000000815260040161032190611484565b60405180910390fd5b600080600084815260200190815260200160002090506001600681111561035457610353611287565b5b8160030160009054906101000a900460ff16600681111561037857610377611287565b5b146103b8576040517f08c379a00000000000000000000000000000000000000000000000000000000081526004016103af906114f0565b60405180910390fd5b60028160030160006101000a81548160ff021916908360068111156103e0576103df611287565b5b0217905550827f63d19997a3d3810b2787bd20fc4eb29b9d3cf2279d6aa2f719f59899bffd923560405160405180910390a2505050565b600080600084815260200190815260200160002090506004600681111561044157610440611287565b5b8160030160009054906101000a900460ff16600681111561046557610464611287565b5b146104a5576040517f08c379a000000000000000000000000000000000000000000000000000000000815260040161049c906114f0565b60405180910390fd5b811561060e5760058160030160006101000a81548160ff021916908360068111156104d3576104d2611287565b5b021790555060008160010160009054906101000a900473ffffffffffffffffffffffffffffffffffffffff1673ffffffffffffffffffffffffffffffffffffffff16826002015460405161052690611541565b60006040518083038185875af1925050503d8060008114610563576040519150601f19603f3d011682016040523d82523d6000602084013e610568565b606091505b50509050806105ac576040517f08c379a00000000000000000000000000000000000000000000000000000000081526004016105a3906115a2565b60405180910390fd5b837fc513157869d5df7583154f47d70526162925e137610792515fae2d874b519daa8360010160009054906101000a900473ffffffffffffffffffffffffffffffffffffffff1660405161060091906115c2565b60405180910390a250610773565b60068160030160006101000a81548160ff0219169083600681111561063657610635611287565b5b021790555060008160000160009054906101000a900473ffffffffffffffffffffffffffffffffffffffff1673ffffffffffffffffffffffffffffffffffffffff16826002015460405161068990611541565b60006040518083038185875af1925050503d80600081146106c6576040519150601f19603f3d011682016040523d82523d6000602084013e6106cb565b606091505b505090508061070f576040517f08c379a000000000000000000000000000000000000000000000000000000000815260040161070690611629565b60405180910390fd5b837ff552ca82e113ac3c539c3d617f29fcd19c172a0c75dad017555c9e109f7fe1838360000160009054906101000a900473ffffffffffffffffffffffffffffffffffffffff168460020154604051610769929190611649565b60405180910390a2505b600080848152602001908152602001600020600080820160006101000a81549073ffffffffffffffffffffffffffffffffffffffff02191690556001820160006101000a81549073ffffffffffffffffffffffffffffffffffffffff021916905560028201600090556003820160006101000a81549060ff02191690555050505050565b8160008082815260200190815260200160002060000160009054906101000a900473ffffffffffffffffffffffffffffffffffffffff1673ffffffffffffffffffffffffffffffffffffffff163373ffffffffffffffffffffffffffffffffffffffff161461089b576040517f08c379a0000000000000000000000000000000000000000000000000000000008152600401610892906116be565b60405180910390fd5b60008060008581526020019081526020016000209050600060068111156108c5576108c4611287565b5b8160030160009054906101000a900460ff1660068111156108e9576108e8611287565b5b14610929576040517f08c379a0000000000000000000000000000000000000000000000000000000008152600401610920906114f0565b60405180910390fd5b828160010160006101000a81548173ffffffffffffffffffffffffffffffffffffffff021916908373ffffffffffffffffffffffffffffffffffffffff16021790555060018160030160006101000a81548160ff0219169083600681111561099457610993611287565b5b02179055508273ffffffffffffffffffffffffffffffffffffffff16847f9e8bdff823a4a0b90b8b687a89ad1f3689874989a7794e7ea22237828c71954760405160405180910390a350505050565b600073ffffffffffffffffffffffffffffffffffffffff1660008083815260200190815260200160002060000160009054906101000a900473ffffffffffffffffffffffffffffffffffffffff1673ffffffffffffffffffffffffffffffffffffffff1614610a87576040517f08c379a0000000000000000000000000000000000000000000000000000000008152600401610a7e9061172a565b60405180910390fd5b60003411610aca576040517f08c379a0000000000000000000000000000000000000000000000000000000008152600401610ac190611796565b60405180910390fd5b60405180608001604052803373ffffffffffffffffffffffffffffffffffffffff168152602001600073ffffffffffffffffffffffffffffffffffffffff16815260200134815260200160006006811115610b2857610b27611287565b5b81525060008083815260200190815260200160002060008201518160000160006101000a81548173ffffffffffffffffffffffffffffffffffffffff021916908373ffffffffffffffffffffffffffffffffffffffff16021790555060208201518160010160006101000a81548173ffffffffffffffffffffffffffffffffffffffff021916908373ffffffffffffffffffffffffffffffffffffffff1602179055506040820151816002015560608201518160030160006101000a81548160ff02191690836006811115610c0057610bff611287565b5b02179055509050503373ffffffffffffffffffffffffffffffffffffffff16817f21a21580d9fcb6cc5ccbc4f5ccc7f2572840ce32811890c39dbe438f0f48034e34604051610c4f91906117b6565b60405180910390a350565b8060008082815260200190815260200160002060000160009054906101000a900473ffffffffffffffffffffffffffffffffffffffff1673ffffffffffffffffffffffffffffffffffffffff163373ffffffffffffffffffffffffffffffffffffffff1614610cfe576040517f08c379a0000000000000000000000000000000000000000000000000000000008152600401610cf5906116be565b60405180910390fd5b6000806000848152602001908152602001600020905060026006811115610d2857610d27611287565b5b8160030160009054906101000a900460ff166006811115610d4c57610d4b611287565b5b14610d8c576040517f08c379a0000000000000000000000000000000000000000000000000000000008152600401610d83906114f0565b60405180910390fd5b60038160030160006101000a81548160ff02191690836006811115610db457610db3611287565b5b021790555060008160010160009054906101000a900473ffffffffffffffffffffffffffffffffffffffff1673ffffffffffffffffffffffffffffffffffffffff168260020154604051610e0790611541565b60006040518083038185875af1925050503d8060008114610e44576040519150601f19603f3d011682016040523d82523d6000602084013e610e49565b606091505b5050905080610e8d576040517f08c379a0000000000000000000000000000000000000000000000000000000008152600401610e84906115a2565b60405180910390fd5b8160010160009054906101000a900473ffffffffffffffffffffffffffffffffffffffff1673ffffffffffffffffffffffffffffffffffffffff16847f1e170c3b430cc6fdcdaa453c42619ac587e13793aa81a489fab9ebd7019c2efb8460020154604051610efc91906117b6565b60405180910390a3600080858152602001908152602001600020600080820160006101000a81549073ffffffffffffffffffffffffffffffffffffffff02191690556001820160006101000a81549073ffffffffffffffffffffffffffffffffffffffff021916905560028201600090556003820160006101000a81549060ff0219169055505050505050565b8060008082815260200190815260200160002060000160009054906101000a900473ffffffffffffffffffffffffffffffffffffffff1673ffffffffffffffffffffffffffffffffffffffff163373ffffffffffffffffffffffffffffffffffffffff161480611059575060008082815260200190815260200160002060010160009054906101000a900473ffffffffffffffffffffffffffffffffffffffff1673ffffffffffffffffffffffffffffffffffffffff163373ffffffffffffffffffffffffffffffffffffffff16145b611098576040517f08c379a000000000000000000000000000000000000000000000000000000000815260040161108f90611484565b60405180910390fd5b60008060008481526020019081526020016000209050600260068111156110c2576110c1611287565b5b8160030160009054906101000a900460ff1660068111156110e6576110e5611287565b5b148061112757506001600681111561110157611100611287565b5b8160030160009054906101000a900460ff16600681111561112557611124611287565b5b145b611166576040517f08c379a000000000000000000000000000000000000000000000000000000000815260040161115d906114f0565b60405180910390fd5b60048160030160006101000a81548160ff0219169083600681111561118e5761118d611287565b5b0217905550827f1801c047724383abaab65b9bb8a52ee3204560c6bc2b52543437937c79097b8660405160405180910390a2505050565b600080fd5b6000819050919050565b6111dd816111ca565b81146111e857600080fd5b50565b6000813590506111fa816111d4565b92915050565b600060208284031215611216576112156111c5565b5b6000611224848285016111eb565b91505092915050565b600073ffffffffffffffffffffffffffffffffffffffff82169050919050565b60006112588261122d565b9050919050565b6112688161124d565b82525050565b6000819050919050565b6112818161126e565b82525050565b7f4e487b7100000000000000000000000000000000000000000000000000000000600052602160045260246000fd5b600781106112c7576112c6611287565b5b50565b60008190506112d8826112b6565b919050565b60006112e8826112ca565b9050919050565b6112f8816112dd565b82525050565b6000608082019050611313600083018761125f565b611320602083018661125f565b61132d6040830185611278565b61133a60608301846112ef565b95945050505050565b60008115159050919050565b61135881611343565b811461136357600080fd5b50565b6000813590506113758161134f565b92915050565b60008060408385031215611392576113916111c5565b5b60006113a0858286016111eb565b92505060206113b185828601611366565b9150509250929050565b6113c48161124d565b81146113cf57600080fd5b50565b6000813590506113e1816113bb565b92915050565b600080604083850312156113fe576113fd6111c5565b5b600061140c858286016111eb565b925050602061141d858286016113d2565b9150509250929050565b600082825260208201905092915050565b7f4e6f74207061727469636970616e740000000000000000000000000000000000600082015250565b600061146e600f83611427565b915061147982611438565b602082019050919050565b6000602082019050818103600083015261149d81611461565b9050919050565b7f4261642073746174650000000000000000000000000000000000000000000000600082015250565b60006114da600983611427565b91506114e5826114a4565b602082019050919050565b60006020820190508181036000830152611509816114cd565b9050919050565b600081905092915050565b50565b600061152b600083611510565b91506115368261151b565b600082019050919050565b600061154c8261151e565b9150819050919050565b7f5472616e73666572206661696c65640000000000000000000000000000000000600082015250565b600061158c600f83611427565b915061159782611556565b602082019050919050565b600060208201905081810360008301526115bb8161157f565b9050919050565b60006020820190506115d7600083018461125f565b92915050565b7f526566756e64206661696c656400000000000000000000000000000000000000600082015250565b6000611613600d83611427565b915061161e826115dd565b602082019050919050565b6000602082019050818103600083015261164281611606565b9050919050565b600060408201905061165e600083018561125f565b61166b6020830184611278565b9392505050565b7f4f6e6c7920636c69656e74000000000000000000000000000000000000000000600082015250565b60006116a8600b83611427565b91506116b382611672565b602082019050919050565b600060208201905081810360008301526116d78161169b565b9050919050565b7f4578697374730000000000000000000000000000000000000000000000000000600082015250565b6000611714600683611427565b915061171f826116de565b602082019050919050565b6000602082019050818103600083015261174381611707565b9050919050565b7f4e6f2066756e6473000000000000000000000000000000000000000000000000600082015250565b6000611780600883611427565b915061178b8261174a565b602082019050919050565b600060208201905081810360008301526117af81611773565b9050919050565b60006020820190506117cb6000830184611278565b9291505056fea26469706673582212201df8abc1c225802667fd83752f1c82bef316220187dac68ff55495b6fa6ebace64736f6c63430008140033",
  "linkReferences": {},
  "deployedLinkReferences": {}
}